{
  "contractName": "Crowdsale",
  "abi": [
    {
      "constant": false,
      "inputs": [
        {
          "name": "_address",
          "type": "address"
        },
        {
          "name": "_tokens",
          "type": "uint256"
        }
      ],
      "name": "manualSendTokens",
      "outputs": [],
      "payable": false,
      "stateMutability": "nonpayable",
      "type": "function"
    },
    {
      "constant": true,
      "inputs": [
        {
          "name": "_time",
          "type": "uint256"
        }
      ],
      "name": "isIco",
      "outputs": [
        {
          "name": "",
          "type": "bool"
        }
      ],
      "payable": false,
      "stateMutability": "pure",
      "type": "function"
    },
    {
      "constant": true,
      "inputs": [
        {
          "name": "_value",
          "type": "uint256"
        },
        {
          "name": "_time",
          "type": "uint256"
        }
      ],
      "name": "etherToTokens",
      "outputs": [
        {
          "name": "res",
          "type": "uint256"
        }
      ],
      "payable": false,
      "stateMutability": "view",
      "type": "function"
    },
    {
      "constant": false,
      "inputs": [
        {
          "name": "_newSupport",
          "type": "address"
        }
      ],
      "name": "transferTechSupport",
      "outputs": [],
      "payable": false,
      "stateMutability": "nonpayable",
      "type": "function"
    },
    {
      "constant": true,
      "inputs": [],
      "name": "preIcoStart",
      "outputs": [
        {
          "name": "",
          "type": "uint256"
        }
      ],
      "payable": false,
      "stateMutability": "view",
      "type": "function"
    },
    {
      "constant": true,
      "inputs": [],
      "name": "minCap",
      "outputs": [
        {
          "name": "",
          "type": "uint256"
        }
      ],
      "payable": false,
      "stateMutability": "view",
      "type": "function"
    },
    {
      "constant": true,
      "inputs": [
        {
          "name": "_time",
          "type": "uint256"
        }
      ],
      "name": "isPreIco",
      "outputs": [
        {
          "name": "",
          "type": "bool"
        }
      ],
      "payable": false,
      "stateMutability": "pure",
      "type": "function"
    },
    {
      "constant": true,
      "inputs": [],
      "name": "tokensSold",
      "outputs": [
        {
          "name": "",
          "type": "uint256"
        }
      ],
      "payable": false,
      "stateMutability": "view",
      "type": "function"
    },
    {
      "constant": true,
      "inputs": [],
      "name": "distribution",
      "outputs": [
        {
          "name": "",
          "type": "address"
        }
      ],
      "payable": false,
      "stateMutability": "view",
      "type": "function"
    },
    {
      "constant": true,
      "inputs": [],
      "name": "preIcoMinInvest",
      "outputs": [
        {
          "name": "",
          "type": "uint256"
        }
      ],
      "payable": false,
      "stateMutability": "view",
      "type": "function"
    },
    {
      "constant": false,
      "inputs": [],
      "name": "acceptOwnership",
      "outputs": [],
      "payable": false,
      "stateMutability": "nonpayable",
      "type": "function"
    },
    {
      "constant": true,
      "inputs": [],
      "name": "preIcoFinish",
      "outputs": [
        {
          "name": "",
          "type": "uint256"
        }
      ],
      "payable": false,
      "stateMutability": "view",
      "type": "function"
    },
    {
      "constant": true,
      "inputs": [],
      "name": "icoStart",
      "outputs": [
        {
          "name": "",
          "type": "uint256"
        }
      ],
      "payable": false,
      "stateMutability": "view",
      "type": "function"
    },
    {
      "constant": true,
      "inputs": [],
      "name": "owner",
      "outputs": [
        {
          "name": "",
          "type": "address"
        }
      ],
      "payable": false,
      "stateMutability": "view",
      "type": "function"
    },
    {
      "constant": false,
      "inputs": [],
      "name": "acceptSupport",
      "outputs": [],
      "payable": false,
      "stateMutability": "nonpayable",
      "type": "function"
    },
    {
      "constant": true,
      "inputs": [
        {
          "name": "_time",
          "type": "uint256"
        }
      ],
      "name": "timeBasedBonus",
      "outputs": [
        {
          "name": "",
          "type": "uint256"
        }
      ],
      "payable": false,
      "stateMutability": "pure",
      "type": "function"
    },
    {
      "constant": true,
      "inputs": [],
      "name": "icoFinish",
      "outputs": [
        {
          "name": "",
          "type": "uint256"
        }
      ],
      "payable": false,
      "stateMutability": "view",
      "type": "function"
    },
    {
      "constant": true,
      "inputs": [],
      "name": "ethCollected",
      "outputs": [
        {
          "name": "",
          "type": "uint256"
        }
      ],
      "payable": false,
      "stateMutability": "view",
      "type": "function"
    },
    {
      "constant": true,
      "inputs": [],
      "name": "techSupport",
      "outputs": [
        {
          "name": "",
          "type": "address"
        }
      ],
      "payable": false,
      "stateMutability": "view",
      "type": "function"
    },
    {
      "constant": true,
      "inputs": [],
      "name": "newOwner",
      "outputs": [
        {
          "name": "",
          "type": "address"
        }
      ],
      "payable": false,
      "stateMutability": "view",
      "type": "function"
    },
    {
      "constant": true,
      "inputs": [],
      "name": "newTechSupport",
      "outputs": [
        {
          "name": "",
          "type": "address"
        }
      ],
      "payable": false,
      "stateMutability": "view",
      "type": "function"
    },
    {
      "constant": false,
      "inputs": [],
      "name": "endIco",
      "outputs": [],
      "payable": false,
      "stateMutability": "nonpayable",
      "type": "function"
    },
    {
      "constant": false,
      "inputs": [
        {
          "name": "_newOwner",
          "type": "address"
        }
      ],
      "name": "transferOwnership",
      "outputs": [],
      "payable": false,
      "stateMutability": "nonpayable",
      "type": "function"
    },
    {
      "constant": true,
      "inputs": [],
      "name": "icoMinInvest",
      "outputs": [
        {
          "name": "",
          "type": "uint256"
        }
      ],
      "payable": false,
      "stateMutability": "view",
      "type": "function"
    },
    {
      "constant": true,
      "inputs": [],
      "name": "token",
      "outputs": [
        {
          "name": "",
          "type": "address"
        }
      ],
      "payable": false,
      "stateMutability": "view",
      "type": "function"
    },
    {
      "inputs": [
        {
          "name": "_tokenAddress",
          "type": "address"
        },
        {
          "name": "_techSupport",
          "type": "address"
        }
      ],
      "payable": false,
      "stateMutability": "nonpayable",
      "type": "constructor"
    },
    {
      "payable": true,
      "stateMutability": "payable",
      "type": "fallback"
    }
  ],
  "bytecode": "0x606060405260026004556000600655600060075566038d7ea4c6800060085573bbbbaaedaa53eacf57213b95cc023f668edba361600960006101000a81548173ffffffffffffffffffffffffffffffffffffffff021916908373ffffffffffffffffffffffffffffffffffffffff160217905550341561007e57600080fd5b60405160408061163f83398101604052808051906020019091908051906020019091905050336000806101000a81548173ffffffffffffffffffffffffffffffffffffffff021916908373ffffffffffffffffffffffffffffffffffffffff16021790555081600560006101000a81548173ffffffffffffffffffffffffffffffffffffffff021916908373ffffffffffffffffffffffffffffffffffffffff16021790555080600260006101000a81548173ffffffffffffffffffffffffffffffffffffffff021916908373ffffffffffffffffffffffffffffffffffffffff160217905550600560009054906101000a900473ffffffffffffffffffffffffffffffffffffffff1673ffffffffffffffffffffffffffffffffffffffff16636596cff3306040518263ffffffff167c0100000000000000000000000000000000000000000000000000000000028152600401808273ffffffffffffffffffffffffffffffffffffffff1673ffffffffffffffffffffffffffffffffffffffff168152602001915050600060405180830381600087803b151561022157600080fd5b5af1151561022e57600080fd5b505050336000806101000a81548173ffffffffffffffffffffffffffffffffffffffff021916908373ffffffffffffffffffffffffffffffffffffffff16021790555050506113bd806102826000396000f300606060405260043610610149576000357c0100000000000000000000000000000000000000000000000000000000900463ffffffff16806304719030146101855780630a1e71de146101c75780630fa95aee146102025780632184fe2c146102425780633d7419941461027b5780633fa615b0146102a4578063414b85e4146102cd578063518ab2a8146103085780635ee58efc14610331578063792179821461038657806379ba5097146103af5780637d57a85c146103c4578063827037db146103ed5780638da5cb5b14610416578063944126f41461046b57806397aaa73c14610480578063b333ce0d146104b7578063bee2e134146104e0578063d459654a14610509578063d4ee1d901461055e578063e3d13592146105b3578063e657807b14610608578063f2fde38b1461061d578063f42b999914610656578063fc0c546a1461067f575b610152426106d4565b80610162575061016142610701565b5b151561016d57600080fd5b610178333442610732565b151561018357600080fd5b005b341561019057600080fd5b6101c5600480803573ffffffffffffffffffffffffffffffffffffffff169060200190919080359060200190919050506109de565b005b34156101d257600080fd5b6101e86004808035906020019091905050610701565b604051808215151515815260200191505060405180910390f35b341561020d57600080fd5b61022c6004808035906020019091908035906020019091905050610b2d565b6040518082815260200191505060405180910390f35b341561024d57600080fd5b610279600480803573ffffffffffffffffffffffffffffffffffffffff16906020019091905050610bac565b005b341561028657600080fd5b61028e610ca3565b6040518082815260200191505060405180910390f35b34156102af57600080fd5b6102b7610cab565b6040518082815260200191505060405180910390f35b34156102d857600080fd5b6102ee60048080359060200190919050506106d4565b604051808215151515815260200191505060405180910390f35b341561031357600080fd5b61031b610cc9565b6040518082815260200191505060405180910390f35b341561033c57600080fd5b610344610ccf565b604051808273ffffffffffffffffffffffffffffffffffffffff1673ffffffffffffffffffffffffffffffffffffffff16815260200191505060405180910390f35b341561039157600080fd5b610399610cf5565b6040518082815260200191505060405180910390f35b34156103ba57600080fd5b6103c2610d11565b005b34156103cf57600080fd5b6103d7610dcc565b6040518082815260200191505060405180910390f35b34156103f857600080fd5b610400610dd4565b6040518082815260200191505060405180910390f35b341561042157600080fd5b610429610ddc565b604051808273ffffffffffffffffffffffffffffffffffffffff1673ffffffffffffffffffffffffffffffffffffffff16815260200191505060405180910390f35b341561047657600080fd5b61047e610e01565b005b341561048b57600080fd5b6104a16004808035906020019091905050610ebd565b6040518082815260200191505060405180910390f35b34156104c257600080fd5b6104ca610f83565b6040518082815260200191505060405180910390f35b34156104eb57600080fd5b6104f3610f8b565b6040518082815260200191505060405180910390f35b341561051457600080fd5b61051c610f91565b604051808273ffffffffffffffffffffffffffffffffffffffff1673ffffffffffffffffffffffffffffffffffffffff16815260200191505060405180910390f35b341561056957600080fd5b610571610fb7565b604051808273ffffffffffffffffffffffffffffffffffffffff1673ffffffffffffffffffffffffffffffffffffffff16815260200191505060405180910390f35b34156105be57600080fd5b6105c6610fdd565b604051808273ffffffffffffffffffffffffffffffffffffffff1673ffffffffffffffffffffffffffffffffffffffff16815260200191505060405180910390f35b341561061357600080fd5b61061b611003565b005b341561062857600080fd5b610654600480803573ffffffffffffffffffffffffffffffffffffffff16906020019091905050611164565b005b341561066157600080fd5b61066961123f565b6040518082815260200191505060405180910390f35b341561068a57600080fd5b61069261125b565b604051808273ffffffffffffffffffffffffffffffffffffffff1673ffffffffffffffffffffffffffffffffffffffff16815260200191505060405180910390f35b600081635aafcb63111580156106ed5750635b11192082105b156106fb57600190506106fc565b5b919050565b600081635b38a6201115801561071a5750635bb1f02082105b15610728576001905061072d565b600090505b919050565b60008061073f8484610b2d565b905061074a836106d4565b1561087257610765600454600a61128190919063ffffffff16565b603202811015151561077657600080fd5b600560009054906101000a900473ffffffffffffffffffffffffffffffffffffffff1673ffffffffffffffffffffffffffffffffffffffff16639c1f020a86836040518363ffffffff167c0100000000000000000000000000000000000000000000000000000000028152600401808373ffffffffffffffffffffffffffffffffffffffff1673ffffffffffffffffffffffffffffffffffffffff16815260200182815260200192505050600060405180830381600087803b151561083a57600080fd5b5af1151561084757600080fd5b50505061085f816006546112b290919063ffffffff16565b60068190555061086d6112d0565b6109b7565b610888600454600a61128190919063ffffffff16565b600a02811015151561089957600080fd5b600560009054906101000a900473ffffffffffffffffffffffffffffffffffffffff1673ffffffffffffffffffffffffffffffffffffffff16639c1f020a86836040518363ffffffff167c0100000000000000000000000000000000000000000000000000000000028152600401808373ffffffffffffffffffffffffffffffffffffffff1673ffffffffffffffffffffffffffffffffffffffff16815260200182815260200192505050600060405180830381600087803b151561095d57600080fd5b5af1151561096a57600080fd5b505050610982816006546112b290919063ffffffff16565b60068190555061099e600454600a61128190919063ffffffff16565b620f4240026006541015156109b6576109b56112d0565b5b5b6109cc846007546112b290919063ffffffff16565b60078190555060019150509392505050565b600260009054906101000a900473ffffffffffffffffffffffffffffffffffffffff1673ffffffffffffffffffffffffffffffffffffffff163373ffffffffffffffffffffffffffffffffffffffff16141515610a3a57600080fd5b600560009054906101000a900473ffffffffffffffffffffffffffffffffffffffff1673ffffffffffffffffffffffffffffffffffffffff16639c1f020a83836040518363ffffffff167c0100000000000000000000000000000000000000000000000000000000028152600401808373ffffffffffffffffffffffffffffffffffffffff1673ffffffffffffffffffffffffffffffffffffffff16815260200182815260200192505050600060405180830381600087803b1515610afe57600080fd5b5af11515610b0b57600080fd5b505050610b23816006546112b290919063ffffffff16565b6006819055505050565b600080600854610b5b610b4c600454600a61128190919063ffffffff16565b8661134b90919063ffffffff16565b811515610b6457fe5b049150610b7083610ebd565b9050610ba36064610b8a838561134b90919063ffffffff16565b811515610b9357fe5b04836112b290919063ffffffff16565b91505092915050565b6000809054906101000a900473ffffffffffffffffffffffffffffffffffffffff1673ffffffffffffffffffffffffffffffffffffffff163373ffffffffffffffffffffffffffffffffffffffff161480610c545750600260009054906101000a900473ffffffffffffffffffffffffffffffffffffffff1673ffffffffffffffffffffffffffffffffffffffff163373ffffffffffffffffffffffffffffffffffffffff16145b1515610c5f57600080fd5b80600360006101000a81548173ffffffffffffffffffffffffffffffffffffffff021916908373ffffffffffffffffffffffffffffffffffffffff16021790555050565b635aafcb6381565b610cc1600454600a61128190919063ffffffff16565b620f42400281565b60065481565b600960009054906101000a900473ffffffffffffffffffffffffffffffffffffffff1681565b610d0b600454600a61128190919063ffffffff16565b60320281565b600160009054906101000a900473ffffffffffffffffffffffffffffffffffffffff1673ffffffffffffffffffffffffffffffffffffffff163373ffffffffffffffffffffffffffffffffffffffff161415610dca57600160009054906101000a900473ffffffffffffffffffffffffffffffffffffffff166000806101000a81548173ffffffffffffffffffffffffffffffffffffffff021916908373ffffffffffffffffffffffffffffffffffffffff1602179055505b565b635b11192081565b635b38a62081565b6000809054906101000a900473ffffffffffffffffffffffffffffffffffffffff1681565b600360009054906101000a900473ffffffffffffffffffffffffffffffffffffffff1673ffffffffffffffffffffffffffffffffffffffff163373ffffffffffffffffffffffffffffffffffffffff161415610ebb57600360009054906101000a900473ffffffffffffffffffffffffffffffffffffffff16600260006101000a81548173ffffffffffffffffffffffffffffffffffffffff021916908373ffffffffffffffffffffffffffffffffffffffff1602179055505b565b6000610ec8826106d4565b15610f1c578162093a80635aafcb63011115610ee75760149050610f7e565b8162127500635aafcb63011115610f0157600f9050610f7e565b81621baf80635aafcb63011115610f1b57600a9050610f7e565b5b610f2582610701565b15610f79578162093a80635b38a620011115610f445760149050610f7e565b8162127500635b38a620011115610f5e57600f9050610f7e565b81621baf80635b38a620011115610f7857600a9050610f7e565b5b600090505b919050565b635bb1f02081565b60075481565b600260009054906101000a900473ffffffffffffffffffffffffffffffffffffffff1681565b600160009054906101000a900473ffffffffffffffffffffffffffffffffffffffff1681565b600360009054906101000a900473ffffffffffffffffffffffffffffffffffffffff1681565b6000809054906101000a900473ffffffffffffffffffffffffffffffffffffffff1673ffffffffffffffffffffffffffffffffffffffff163373ffffffffffffffffffffffffffffffffffffffff1614806110ab5750600260009054906101000a900473ffffffffffffffffffffffffffffffffffffffff1673ffffffffffffffffffffffffffffffffffffffff163373ffffffffffffffffffffffffffffffffffffffff16145b15156110b657600080fd5b62069780635bb1f02001421115156110cd57600080fd5b600560009054906101000a900473ffffffffffffffffffffffffffffffffffffffff1673ffffffffffffffffffffffffffffffffffffffff1663e657807b6040518163ffffffff167c0100000000000000000000000000000000000000000000000000000000028152600401600060405180830381600087803b151561115257600080fd5b5af1151561115f57600080fd5b505050565b6000809054906101000a900473ffffffffffffffffffffffffffffffffffffffff1673ffffffffffffffffffffffffffffffffffffffff163373ffffffffffffffffffffffffffffffffffffffff161415156111bf57600080fd5b600073ffffffffffffffffffffffffffffffffffffffff168173ffffffffffffffffffffffffffffffffffffffff16141515156111fb57600080fd5b80600160006101000a81548173ffffffffffffffffffffffffffffffffffffffff021916908373ffffffffffffffffffffffffffffffffffffffff16021790555050565b611255600454600a61128190919063ffffffff16565b600a0281565b600560009054906101000a900473ffffffffffffffffffffffffffffffffffffffff1681565b600080600083141561129657600191506112ab565b82840a90508381101515156112a757fe5b8091505b5092915050565b60008082840190508381101515156112c657fe5b8091505092915050565b600960009054906101000a900473ffffffffffffffffffffffffffffffffffffffff1673ffffffffffffffffffffffffffffffffffffffff166108fc3073ffffffffffffffffffffffffffffffffffffffff16319081150290604051600060405180830381858888f19350505050151561134957600080fd5b565b600080600084148061135d5750600083145b1561136b576000915061138a565b828402905082848281151561137c57fe5b0414151561138657fe5b8091505b50929150505600a165627a7a7230582010faebf27e969ec0a0048eeae31958b905eb9dbc1094743562b5885b443aad350029",
  "source": "pragma solidity ^0.4.20;\n\nlibrary SafeMath { //standart library for uint\n  function mul(uint256 a, uint256 b) internal pure returns (uint256) {\n    if (a == 0 || b == 0){\n        return 0;\n    }\n    uint256 c = a * b;\n    assert(c / a == b);\n    return c;\n  }\n\n  function sub(uint256 a, uint256 b) internal pure returns (uint256) {\n    assert(b <= a);\n    return a - b;\n  }\n\n  function add(uint256 a, uint256 b) internal pure returns (uint256) {\n    uint256 c = a + b;\n    assert(c >= a);\n    return c;\n  }\n\n  function pow(uint256 a, uint256 b) internal pure returns (uint256){ //power function\n    if (b == 0){\n      return 1;\n    }\n    uint256 c = a**b;\n    assert (c >= a);\n    return c;\n  }\n}\n\n//standart contract to identify owner\ncontract Ownable {\n\n  address public owner;\n\n  address public newOwner;\n\n  address public techSupport;\n\n  address public newTechSupport;\n\n  modifier onlyOwner() {\n    require(msg.sender == owner);\n    _;\n  }\n\n  modifier onlyTechSupport() {\n    require(msg.sender == techSupport);\n    _;\n  }\n\n  function Ownable() public {\n    owner = msg.sender;\n  }\n\n  function transferOwnership(address _newOwner) public onlyOwner {\n    require(_newOwner != address(0));\n    newOwner = _newOwner;\n  }\n\n  function acceptOwnership() public {\n    if (msg.sender == newOwner) {\n      owner = newOwner;\n    }\n  }\n\n  function transferTechSupport (address _newSupport) public{\n    require (msg.sender == owner || msg.sender == techSupport);\n    newTechSupport = _newSupport;\n  }\n\n  function acceptSupport() public{\n    if(msg.sender == newTechSupport){\n      techSupport = newTechSupport;\n    }\n  }\n\n}\n\n//Abstract Token contract\ncontract HeliosToken{\n  function setCrowdsaleContract (address) public;\n  function sendCrowdsaleTokens(address, uint256) public;\n  function endIco() public;\n//   function getOwner()public view returns(address);\n}\n\n//Crowdsale contract\ncontract Crowdsale is Ownable{\n\n  using SafeMath for uint;\n\n  uint decimals = 2;\n  // Token contract address\n  HeliosToken public token;\n\n  // Constructor\n  function Crowdsale(address _tokenAddress, address _techSupport) public{\n    token = HeliosToken(_tokenAddress);\n    techSupport = _techSupport;\n\n    // test parameter\n    // techSupport = 0x8C0F5211A006bB28D4c694dC76632901664230f9;\n\n    token.setCrowdsaleContract(address(this));\n    owner = msg.sender;\n  }\n\n   //Crowdsale variables\n  uint public tokensSold = 0;\n  uint public ethCollected = 0;\n\n\n  uint tokenPrice = 0.001 ether;\n\n  //preIco constants\n  uint public constant preIcoStart = 1521470307; //1525168800\n  uint public constant preIcoFinish = 1527847200;\n  uint public constant preIcoMinInvest = 50*(uint(10).pow(decimals)); //50 Tokens\n\n  // Ico constants\n  uint public constant icoStart = 1530439200; \n  uint public constant icoFinish = 1538388000; \n  uint public constant icoMinInvest = 10*(uint(10).pow(decimals)); //10 Tokens\n\n  uint public constant minCap = 1000000 * uint(10).pow(decimals);\n\n  function isPreIco (uint _time) public pure returns(bool) {\n    if((preIcoStart <= _time) && (_time < preIcoFinish)){\n      return true;\n    }\n  }\n  \n  //check is now ICO\n  function isIco(uint _time) public pure returns (bool){\n    if((icoStart <= _time) && (_time < icoFinish)){\n      return true;\n    }\n    return false;\n  }\n\n  function timeBasedBonus(uint _time) public pure returns(uint) {\n    if(isPreIco(_time)){\n      if(preIcoStart + 1 weeks > _time){\n        return 20;\n      }\n      if(preIcoStart + 2 weeks > _time){\n        return 15;\n      }\n      if(preIcoStart + 3 weeks > _time){\n        return 10;\n      }\n    }\n    if(isIco(_time)){\n      if(icoStart + 1 weeks > _time){\n        return 20;\n      }\n      if(icoStart + 2 weeks > _time){\n        return 15;\n      }\n      if(icoStart + 3 weeks > _time){\n        return 10;\n      }\n    }\n    return 0;\n  }\n  \n  //fallback function (when investor send ether to contract)\n  function() public payable{\n    require(isPreIco(now) || isIco(now));\n    require(buy(msg.sender,msg.value, now)); //redirect to func buy\n  }\n\n  //function buy Tokens\n  function buy(address _address, uint _value, uint _time) internal returns (bool){\n    \n    uint tokensToSend = etherToTokens(_value,_time);\n\n    if (isPreIco(_time)){\n      require (tokensToSend >= preIcoMinInvest);\n      token.sendCrowdsaleTokens(_address,tokensToSend);\n\n      tokensSold = tokensSold.add(tokensToSend);\n      distributeEther();\n\n\n    }else{\n      require (tokensToSend >= icoMinInvest);\n      token.sendCrowdsaleTokens(_address,tokensToSend);\n\n      tokensSold = tokensSold.add(tokensToSend);\n\n      if (tokensSold >= minCap){\n        distributeEther();\n      }\n    }\n\n    ethCollected = ethCollected.add(_value);\n\n    return true;\n  }\n\n  address public distribution = 0xBBBBaAeDaa53EACF57213b95cc023f668eDbA361; //0x6efa045215A477d9e015Af0b5507C7b3c8bA9EBb;\n  // address public distribution2;\n  function distributeEther() internal {\n    // distribution1.transfer(address(this).balance/2);\n    distribution.transfer(address(this).balance);\n  }\n  \n\n  function manualSendTokens (address _address, uint _tokens) public onlyTechSupport {\n    token.sendCrowdsaleTokens(_address, _tokens);\n    tokensSold = tokensSold.add(_tokens);\n  }\n  \n\n  //convert ether to tokens (without decimals)\n  function etherToTokens(uint _value, uint _time) public view returns(uint res) {\n    res = _value.mul((uint)(10).pow(decimals))/tokenPrice;\n    uint bonus = timeBasedBonus(_time);\n    res = res.add(res.mul(bonus)/100);\n  }\n\n\n  function endIco () public {\n    require(msg.sender == owner || msg.sender == techSupport);\n    require(now > icoFinish + 5 days);\n    token.endIco();\n  }\n  \n}",
  "sourcePath": "/home/romuch/Desktop/HeliosTruffle/contracts/HeliosCrowdsale.sol",
  "compiler": {
    "name": "solc",
    "version": "0.4.21+commit.dfe3193c.Emscripten.clang"
  },
  "schemaVersion": "1.0.1",
  "updatedAt": "2018-03-19T15:34:50.852Z"
}